:020000040800F2
:10000000000D002001010008171A000899150008CA
:10001000151A00088D080008191D000800000000CE
:100020000000000000000000000000007B1C000831
:100030008F08000800000000391A00087D1C000825
:100040001B0100081B0100081B0100081B01000820
:100050001B0100081B0100081B0100081B01000810
:100060001B0100081B0100081B0100081B01000800
:100070001B0100081B0100081B0100081B010008F0
:100080001B0100081B0100081B0100081B010008E0
:100090001B0100081B0100081B0100081B010008D0
:1000A0001B0100081B0100081B0100081B010008C0
:1000B0001B0100081B0100081B0100081B010008B0
:1000C0001B0100081B0100081B0100081B010008A0
:1000D0001B0100081B0100081B0100081B01000890
:1000E0001B0100081B0100081B010008DFF80CD0F1
:1000F00000F03CFB00480047152D0008000D0020D3
:100100000648804706480047FEE7FEE7FEE7FEE7B1
:10011000FEE7FEE7FEE7FEE7FEE7FEE7D11C00088C
:10012000ED000008202A04DB203A21FA02F0002129
:10013000704721FA02F3D040C2F1200291400843F7
:100140001946704740EA01039B0703D009E008C93C
:10015000121F08C0042AFAD203E011F8013B00F88C
:10016000013B521EF9D27047D2B201E000F8012BD8
:10017000491EFBD270470022F6E710B513460A4627
:1001800004461946FFF7F0FF204610BD421C10F848
:10019000011B0029FBD1801A7047F0B480EA0102EC
:1001A000D40F4200B2EB410F02D20246084611467C
:1001B0004A0042D0C30DDDB2C1F3C752AD1A202DA3
:1001C00035DAC1F3160141F4000204B15242C5F11F
:1001D000200602FA06F12A411044B3EBD05F23D087
:1001E000C4B1012DA0EBC35009DCF0BC4FF00042BC
:1001F00002EAC352DBB200F5000000F0D0B84000C4
:1002000000F1807000EBC350A0F1807040EAD17023
:10021000490009E0490841EAC071A0EBC35000F56C
:100220000000400800EBC350F0BC00F0AFB86142E2
:10023000012202EB4101001BF6E7F0BC704781F0A0
:100240000041AAE780F00040A7E780EA010210B56C
:1002500002F00043400022D04A001FD0010E01EB03
:100260001261C0F35600C2F3560240F4000042F49B
:100270000002A0FB022000047F39140400D0401CBF
:1002800050EA124001D44000491EC2B20C0604EBF1
:10029000D010401C4008802A02D003E0002010BD8E
:1002A00020F00100002900DA0020184310BD4200B0
:1002B00005D0C0F3C7525242914201DC0020704782
:1002C00000EBC1507047C10F80EAE0700844CA07D4
:1002D0009623002100F063B800F0004230F00040A7
:1002E0000AD0C10D01F56071C0F3160042EA015158
:1002F000C20840071143704700200146704730B5DF
:100300000B46014600202022012409E021FA02F5D3
:100310009D4205D303FA02F5491B04FA02F528446D
:10032000151EA2F10102F1DC30BD2DE9F05F05469A
:10033000002092469B4688460646814640241BE0A4
:100340002846414647462246FFF7ECFE53465A46AA
:10035000C01A914110D311461846224600F018FAEF
:100360002D1A67EB01084F4622460120002100F0BC
:100370000FFA17EB00094E41201EA4F10104DFDC47
:10038000484631462A464346BDE8F09F0029A8BFAB
:100390007047401C490008BF20F00100704710B4AE
:1003A000B0FA80FC00FA0CF050EA010404BF10BC63
:1003B000704749B1CCF1200421FA04F411FA0CF190
:1003C00018BF012121430843A3EB0C01CB1D4FEAC9
:1003D00000614FEA102042BF002010BC704700EBC4
:1003E000C35010440029A4BF10BC7047401C4900F2
:1003F00008BF20F0010010BC70472DE9FE4F804679
:1004000081EA0300C00F0C46009021F0004123F068
:100410000045B8EB0200A94105D24046214690466E
:100420001C460B46024623F00040104347D0270DE0
:10043000C7F30A00C3F30A510290401A0190402802
:100440006BDAC3F3130040F4801B0098924620B18E
:100450000023D2EB030A63EB0B0B01985946C0F162
:100460004002504600F094F906460D465046594663
:10047000019A00F09CF910EB08006141002487EA22
:10048000115284EAE7731A4340D0009A62B3019A8A
:10049000012A4FEA075215DC001B61EB02014FF005
:1004A000004202EA0752CDE90042001C41F58011EA
:1004B00032462B4600F09CF903B0BDE8F08F404671
:1004C0002146F9E7001B61EB0201001C41F5801396
:1004D00000185B412018A2F5001747EB030140EA22
:1004E000D570B6196D4111E06D084FEA360645EA40
:1004F000C0754FEA0752001B61EB0201001C41F579
:10050000801149084FEA30000019514132462B460C
:1005100003B0BDE8F04F00F05CB900980122400044
:100520000023D0EB020263EBE073009821464FEA10
:10053000E074B8EB000061EB0401E9E783F00043ED
:100540005BE781F0004158E72DE9FE4F81EA0304A3
:1005500004F0004421F0004100944FF0000B23F020
:10056000004350EA01045ED052EA03045BD0C3F3B7
:100570000A54C1F30A552C44A4F2F3340194A0FBAD
:100580000254C1F3130141F48011C3F3130343F484
:10059000801301FB024400FB034E840A970A44EADD
:1005A000815447EA8357A4FB076802958D0A05FB2F
:1005B00007854FEA932C04FB0C542705029D4FEA54
:1005C000065847EA1637B5EB08056EEB070C870EA1
:1005D000920E47EA811742EA8312A7FB0201B6EBAB
:1005E0000B0164EB00042B0D43EA0C335E1844EB63
:1005F0001C50DA465146E7FB0201C5F313044FEAEB
:100600000B3343EA14534FEA0432019C43EA0603D6
:10061000A4F10C040294009CCDE900B400F0E8F8C9
:1006200003B0BDE8F08F00200146F9E72DE9F04D59
:1006300081EA030404F0004B21F0004514464FF01A
:10064000000A23F0004150EA050220D054EA0102DA
:100650001DD0C5F30A570246C5F31303C1F31300B7
:10066000C1F30A5640F4801543F48013A7EB060843
:10067000101BD64608F2FD3873EB050002D308F1D3
:10068000010801E092185B41B8F1000F03DA002085
:100690000146BDE8F08D00204FF4801106468446E7
:1006A0000EE0171B73EB050705D3121B63EB050365
:1006B00006434CEA010C49084FEA300092185B41AE
:1006C00050EA0107EDD152EA030012D082EA040099
:1006D00083EA0501084305D0101BAB4106D2012275
:1006E000002306E000224FF0004302E06FF0010219
:1006F00053101AEB06004CEB085110EB0A0041EBCB
:100700000B01BDE8F04D00F064B8C1F30A52C1F32B
:10071000130140F2FF3341F480119A4202DA0020C3
:100720000146704740F233439A42A2F2334202DC60
:100730005242FFF7F7BC00F02BB8000030B5041EA2
:1007400071F1000404DB4FF00044404264EB01010E
:10075000141E73F1000405DB1C464FF000435242A7
:1007600063EB0403994208BF904230BD064C074D2D
:1007700006E0E06840F0010394E807009847103471
:10078000AC42F6D3FFF7B6FCA82D0008C82D000830
:10079000202A04DB203A00FA02F100207047914041
:1007A000C2F1200320FA03F3194390407047202A36
:1007B00006DBCB17203A41FA02F043EAE07306E089
:1007C00041FA02F3D040C2F1200291400843194699
:1007D000704710B5141E73F1000408DA401C41F193
:1007E000000192185B411A4301D120F0010010BDB5
:1007F0002DE9F04D92469B4611B1B1FA81F202E02B
:10080000B0FA80F220329046FFF7C2FF04460F464E
:1008100040EA0A0041EA0B0153465A46084313D006
:10082000114653EA010019D0C8F140025046FFF7C3
:1008300079FC05460E46504659464246FFF7A8FF4A
:10084000084305D0012004E020463946BDE8F08D7C
:100850000020054346EAE0762C4337430A986305B7
:10086000E40AA0EB08000022FD0A44EA47540A30DB
:1008700002D500200146E9E7010510196941DDE9CB
:10088000084500196941BDE8F04DA2E7FEE7704751
:10089000704700002DE9F84FDFF890A100220AF11F
:1008A000040B144601274FF00F090BF1040E00BF93
:1008B0000B6807FA04F52B40AB4274D1DFF870C126
:1008C0004E68A6EB0C0866452BD00DDC032E34D009
:1008D00005DC36B3012E19D0022E2FD11BE0112ECC
:1008E00016D0122E2AD119E0B8F5881F19D006DCCF
:1008F000B8F5803F15D0B8F5801F1FD111E0B8F5CD
:10090000001F0ED0B8F5041F18D10AE0CA6815E020
:10091000CA68121D12E0CA6808320FE0CA680C32B9
:100920000CE08A682AB1012A4FF0080203D0456121
:1009300004E0042202E0056100E00022FF2B01D860
:10094000064601E000F104064FEA840501D9A5F14D
:100950002005D6F800C009FA05F82CEA080C02FABE
:1009600005F54CEA050CC6F800C04D68ED0057D5FA
:10097000304DAE6946F00106AE61AD6924F0030664
:1009800005F0010500952C4D06EB050CDCF8085030
:10099000A6074FEA167809FA08F6B543274EB04283
:1009A00002D1002610E03BE0254EB04201D10126E5
:1009B0000AE0244EB04201D1022605E0224EB042A8
:1009C00001D1032600E0042606FA08F62E43CCF8EF
:1009D00008604D68DAF80060ED03554601D51E4306
:1009E00000E09E432E604D68DBF80060AD035D467D
:1009F00001D51E4300E09E432E604D68DEF8006086
:100A0000ED02754601D51E4300E09E432E604D6801
:100A1000AD020E4D2E6801D51E4300E09E432E60B0
:100A2000641C102CFFF444AFBDE8F88F00040140B3
:100A300000001110001002400000014000080140B9
:100A4000000C014000100140001401400C04014062
:100A50000AB1016170470904FBE7000001488068A2
:100A6000704700008C00002070B504001BD094F883
:100A70003D00002520B984F83C50204600F042FAA1
:100A8000242084F83D002068016821F00101016004
:100A900000F0A6FB404A6168914201D83F4900E05E
:100AA0003F49884201D2012070BD3E492368B0FB16
:100AB000F1F159606368934206D94FF49673594334
:100AC0004FF47A73B1FBF3F12368491C1962616832
:100AD000914210D84900401EB0FBF1F2521CC2F303
:100AE0000B02042A01D2042022E0B0FBF1F0401CEA
:100AF000C0F30B001CE0A368CBB301EBC10202EB17
:100B00000116421EB2FBF6F2521C42F4804212055C
:100B100036D06BB301EBC10202EB0111401EB0FBFA
:100B2000F1F0401CC0F30B0040F4804040F4004062
:100B30002168C861D4E90701084321680860D4E945
:100B40000310084321688860D4E90501084321683F
:100B5000C8602068016841F001010160256420201F
:100B600084F83D00256384F83E50002070BD00E00D
:100B700008E001EB4106421EB2FBF6F2521CC6E74A
:100B80000120D5E701EB4101401EB0FBF1F0401C14
:100B9000C0F30B00CAE70000A086010080841E009D
:100BA00000093D0040420F002DE9FF4F83B09A46F7
:100BB000DDE9118793460446DDF84090FFF74EFFCC
:100BC000054694F83D00202872D1192301227B4963
:100BD0002046009500F0E5FD0028F5D194F83C0092
:100BE000012865D0012084F83C0020680168C9070D
:100BF00003D1016841F0010101602068016821F41E
:100C000000610160222084F83D00402084F83E000D
:100C100000262664C4F82490A4F82A806848E0627C
:100C2000608D2085CDE9007553465A4620460499CB
:100C300000F0C7FC28B1206C84F83C60042851D037
:100C400075E0208DDFF87C8168B1012814D002287E
:100C5000206801681ED041F480610160206841690C
:100C6000806900909BE0206841698169009101687A
:100C700041F40071016092E02068016821F4806114
:100C8000016072B62068416981690091016841F490
:100C900000710AE041F40061016072B620684169A8
:100CA00081690091016821F48061016062B676E09B
:100CB00081E0032850D801280BD002283B464FF092
:100CC000000241462046009512D000F06AFD70BB3C
:100CD00013E02A463946204600F0D8FD30B1206C9A
:100CE000202824D0012007B0BDE8F08F20684BE019
:100CF00000F057FDD8B972B61BE02068016821F4F6
:100D00008061016072B620680169606A421C62629B
:100D10000170208D401E2085608D401E60853B4601
:100D2000002241462046009500F03BFD08B103201B
:100D3000D9E72068016841F4007101602068016909
:100D4000606A421C62620170208D401E2085608DA9
:100D5000401E608562B6C9E72A463946204600F043
:100D600095FD0028BBD120680169606A421C62625F
:100D70000170208D401E2085608D401E608520689A
:100D80004169C94349070AD40169606A421C626229
:100D90000170208D401E2085608D401E6085208D55
:100DA000002886D1202084F83D0084F83E6084F835
:100DB0003C60002097E7022095E700000200100049
:100DC0000000FFFF040001002DE9FF4F83B09A46A9
:100DD000DDE9118793460446DDF84090FFF73EFEBB
:100DE000064694F83D0020287DD11923012243496D
:100DF0002046009600F0D5FC00287CD194F83C00F9
:100E0000012878D0012084F83C0020680168C907D7
:100E100003D1016841F0010101602068016821F4FB
:100E200000610160212084F83D00402084F83E00EC
:100E300000252564C4F82490A4F82A803048E06294
:100E4000608D2085CDE9007653465A4620460499A8
:100E500000F030FC80B3206C84F83C50042848D06B
:100E600008E032463946204600F041FD30B1206CA2
:100E7000042839D0032007B0BDE8F08F606A411C18
:100E80006162216800780861208D401E80B2208553
:100E9000618D491E618521684A69D24352070BD48E
:100EA00068B1606A421C626200780861208D401E51
:100EB0002085608D401E6085208D0028D1D132466E
:100EC0003946204600F046FC0028D0D154F83D0BAE
:100ED000016841F400710160202004F81E09E577E3
:100EE00065770020C7E706E02068016841F40071DB
:100EF00001600120BFE70220BDE7000002001000F2
:100F00000000FFFF10B586B0002100910191029111
:100F1000039100680F4988421AD10F4CA06940F034
:100F20000800A061A069694600F008000490C02094
:100F3000009012200190032003900848FFF7AAFCBC
:100F4000E06940F40010E061E06900F400100490F2
:100F500006B010BD0054004000100240000C0140DB
:100F60000248816802781144816070478C0000203B
:100F7000074810B5016841F010010160032000F03E
:100F800067F8002000F006F800F024F8002010BDFB
:100F90000020024070B50D4D04464FF47A71287858
:100FA000B1FBF0F00A490968B1FBF0F000F0E0FA9B
:100FB00048B9102C07D200222146501E00F028F814
:100FC00000206C6070BD012070BD00008C0000200E
:100FD000980000200C4808B5816941F00101816149
:100FE000816901F001010091C16941F08051C16145
:100FF000C06900F0805000900448416821F0E06131
:1010000041F00071416008BD001002400000014045
:10101000F0B40E4B1B680C46C3F30223C3F1070563
:10102000042D00D90425191D072901D2002300E051
:10103000DB1E012606FA05F1491E214099409E401B
:10104000761E16403143F0BC00F0E6BC0CED00E02B
:10105000064900F0070208684FF6FF03184040EA0F
:101060000220034A10430860704700000CED00E0C6
:101070000000FA052DE9F047DFF8548105460E46D9
:10108000D8F8000000F00700B0420CD2D8F80010E9
:1010900021F007013143C8F80010D8F8000000F033
:1010A0000700B0426FD128684A4C810712D540072B
:1010B00003D5606840F4E06060602878000703D5DD
:1010C000606840F4605060606068A96820F0F000DB
:1010D000084360602878C00744D06868012816D0AB
:1010E0002168022816D0890700294CDA616821F0AE
:1010F000030101436160FFF7B1FC6968074641F2F3
:10110000883001290ED00229814618D026E02168B6
:101110008903E9E78901E7E7FFF7A0FCC11B49451F
:1011200001D918E081466068C0F381000128F3D13D
:1011300018E000BFFFF792FCC11B49450BD860685F
:10114000C0F381000228F5D10CE000BFFFF786FC58
:10115000C11B494502D90320BDE8F087606810F043
:101160000C0FF3D1D8F80010404601F00701B1424E
:101170000BD9016821F0070131430160006800F0DC
:101180000700B04201D00120E6E72878400705D5E6
:101190006068E96820F4E060084360602878000730
:1011A00006D56068296920F4605040EAC10060609B
:1011B00000F026F86168084AC1F30311515CC84089
:1011C000064908600020FFF7E5FE0020C4E70000A4
:1011D0000020024000100240842D000898000020EA
:1011E0000448054900684968044AC1F30221515C7A
:1011F000C84070479800002000100240942D00085D
:1012000012A185B00FC98DE80F0014A0144A006820
:1012100004905168134801F00C03042B10D0082BE4
:101220000ED1C1F38343C9031DF803000AD55168E9
:1012300004AAC1F34041515C0A4A5043B0FBF1F0AB
:1012400005B0704708494843FAE700000203040567
:10125000060708090A0B0C0D0E0F10100102000002
:101260000010024000127A0000093D002DE9F84FFD
:1012700004460078B94DC00748D06868C0F38100C3
:10128000012807D06868C0F38100022809D1686886
:10129000C00306D52868800338D5606800286FD061
:1012A00034E06068B0F5803F0BD010B1B0F5A02FEE
:1012B00011D0286820F480302860286820F480202D
:1012C00002E0286840F480302860606888B1FFF749
:1012D000C5FB064609E0286840F480202860F0E756
:1012E000FFF7BCFB801B642875D828688003F7D5FE
:1012F0000CE0FFF7B3FB064605E000BFFFF7AEFBCF
:10130000801B6428F0D828688003F7D42078944E96
:1013100080074FF001094FF000083BD5686810F0D6
:101320000C0F07D06868C0F38100022809D16868F3
:10133000C00306D42868800714D5206901281FD16E
:1013400010E02069B0B1C6F80090FFF787FB0746B0
:1013500005E000BFFFF782FBC01B0228C4D8286845
:101360008007F7D52868616920F0F80040EAC100DD
:1013700028600FE0C6F80080FFF770FB074606E024
:10138000E9E000BFFFF76AFBC01B022823D82868EA
:101390008007F7D4207800072CD57248A169D9B10D
:1013A000C0F80090FFF75AFB074604E0FFF756FB32
:1013B000C01B02280FD8686A8007F7D56A484FF427
:1013C000FA510068B0FBF1F0009000BF0098411E98
:1013D0000091FAD20EE080E0C0F80080FFF73EFBFB
:1013E000074604E0FFF73AFBC01B022875D8686A7D
:1013F0008007F7D42078400760D5E8690027C0004F
:1014000008D4E86940F08050E861E869012700F0FD
:101410008050009055480168C90513D4016883467F
:1014200041F480710160FFF719FB824606E000BFBE
:10143000FFF714FBA0EB0A0064284ED8DBF800008D
:10144000C005F5D5E06801280AD008B1052813D0F9
:10145000286A20F001002862286A20F0040002E0D7
:10146000286A40F001002862E06841F2883B98B1A8
:10147000FFF7F4FA82460BE0286A40F00400286285
:10148000EEE700BFFFF7EAFAA0EB0A0159455AD888
:10149000286A8007F6D50CE0FFF7E0FA824605E0FF
:1014A000FFF7DCFAA0EB0A0159454CD8286A8007FF
:1014B000F6D41FB1E86920F08050E861E06988B394
:1014C0006968C1F38101022945D00228C6F860800D
:1014D00004D0FFF7C3FA044638E034E0FFF7BEFA61
:1014E000074604E0FFF7BAFAC01B02282BD8286889
:1014F0008001F7D4206AB0F5803F05D16868A16803
:1015000020F4003008436860D4E9080108436968A2
:1015100021F4741108436860C6F86090FFF79EFAE2
:10152000044606E015E000BFFFF798FA001B02280A
:1015300009D828688001F7D50BE000BFFFF78EFAC5
:10154000001B022802D90320BDE8F88F286880011B
:10155000F4D40020F8E70120F6E700000010024074
:101560000000424280044242980000200070004087
:1015700010B5401EB0F1807F01D3012010BD4FF0A7
:10158000E02460610F21601700F046FA0020A0619E
:1015900007202061002010BDFEE701684A69D243A0
:1015A00052050CD46FF480624A6104210164002169
:1015B00040F8301F20224273017301207047002041
:1015C00070472DE9F84F0446006889460B9D016875
:1015D0009846174641F4806101602068016841F433
:1015E0008071016000954FF0011A0022514620469B
:1015F0000A9B00F0D6F8F0BB216809F0FE000861F4
:101600000AF1010B2B46594620460A9A00F0FAF8D7
:1016100018B1206C042812D03AE020684169806932
:1016200000902A4620460A9900F061F950B1206CDA
:1016300004282DD12068016841F400710160012067
:10164000BDE8F88FFEB2B8F1010F09D02168380A61
:1016500008612A4620460A9900F049F90028E6D197
:10166000206806612A4620460A9900F040F90028C1
:10167000DDD1206800E00BE0016841F48071016079
:1016800000950022514620460A9B00F08AF808B1D6
:101690000320D5E7216809F0FF0040F00100086150
:1016A0002B46594620460A9A00F0ACF80028B0D1E3
:1016B000C6E700002DE9F843044600680D46DDE961
:1016C000089701689846164641F4807101604B46C0
:1016D00000224FF001112046009700F062F8E8B9AF
:1016E000216805F0FE0008613B464A46184920463D
:1016F00000F088F828B1206C04280FD10120BDE843
:10170000F88320684169806900903A46494620463E
:1017100000F0EDF820B1206C042813D00320EEE790
:10172000F5B2B8F1010F09D02168300A08613A46D4
:101730004946204600F0DBF80028ECD1206805611E
:101740000020DCE72068016841F400710160D5E702
:101750000200010070B516460D4604461AE0204608
:10176000FFF71BFF08B1012070BD681C12D025B126
:10177000FFF774F9801BA8420CD954F8400F40F0D1
:10178000200044F81009002020602021617320739C
:10179000032070BD20684069C0434007DFD40020AB
:1017A00070BD2DE9F0471E4690460D460446C1F334
:1017B0000747DDF8209012E0701C10D02EB1FFF723
:1017C0004DF9A0EB0900B04209D9002044F8300FD0
:1017D00020216173A07320730320BDE8F087206887
:1017E000012F0AD0806925EA00000004000C06D011
:1017F00000214145E0D00020EFE74069F3E70121F7
:10180000F7E700002DE9F0479A4691460D46044659
:1018100000264FF02008C1F307472AE020684069FE
:10182000C043400512D42068016841F40071016092
:1018300021686FF48060486104202064266384F886
:101840003D8084F83C600120BDE8F087B9F1FF3F9E
:101850000FD0B9F1000F05D0FFF700F9A0EB0A0196
:10186000494506D944F8306F84F80D80267303206B
:10187000EAE72068012F07D0D0F8180025EA000019
:101880000004000CE0D0C9E74069F7E72DE9F0411A
:10189000002590460E460446202721E04069C043BB
:1018A000C0060CD421686FF01000486125642563E0
:1018B00084F83D7084F83C500120BDE8F0812EB1E1
:1018C000FFF7CCF8A0EB0800B04209D954F8400F5C
:1018D00040F0200044F80409677025700320ECE70D
:1018E00020684169C9434906D8D40020E5E770B5AE
:1018F00016460D4604461AE02046FFF74EFE08B194
:10190000012070BD681C12D025B1FFF7A7F8801B1D
:10191000A8420CD954F8400F40F0200044F81009B8
:1019200000202060202161732073032070BD206897
:101930004069C0430006DFD4002070BD2DE9F041AE
:1019400086B0002420480094019402940394816995
:1019500041F020018161816901F0200104918169D8
:1019600041F004018161816901F004010491816900
:1019700041F0080181618069144F00F008004FF4C4
:1019800099750490012229463846FFF761F8DFF87F
:101990004080012210214046FFF75AF800950326A7
:1019A00001250396CDE9015469463846FEF772FFDA
:1019B0001020CDE90005CDE9024669464046FEF714
:1019C00069FF06B0BDE8F081001002400008014048
:1019D000000C01400D4810B50B4901600C494FF453
:1019E0008042C0E901120021C0E903124161816116
:1019F000C1610162FFF738F8002803D0BDE810404C
:101A0000FEF746BF10BD0000005400409C000020BF
:101A1000801A0600FEE770470907090E002806DA5B
:101A200000F00F0000F1E02080F8141D704700F175
:101A3000E02080F800147047704700002DE9F04165
:101A4000884600EB40012148164600EBC104E16ADC
:101A500001F0030002280BD0A06A626A801A401EBF
:101A600001D5226A1044864202DD89072BD0064642
:101A70004EB30027A06A616A451A6D1E01D5206A1F
:101A80000544D4E90801411AA94201DC616A451AFA
:101A9000B54200DB3546616AE0692A4608444146A2
:101AA000FEF750FB606A2F44A844761B284460620E
:101AB000606A216A884201D100206062002ED9D17B
:101AC0003846BDE8F0810020FBE700000000002060
:101AD0000FB408B504A900916A46039900F004F810
:101AE00001B05DF814FB00002DE9F04198B0064606
:101AF00007A8029040200025CDE90305CDE9055651
:101B000090460C4614F8011B002971D0252908D0F5
:101B100002A800F0D3F905980028F3DA18B0BDE860
:101B2000F0810020217823291BD02B2916D02D29C4
:101B30000ED030290FD000222178A1F130030A2BDA
:101B400013D202EB820201EB4202303A641CF3E74B
:101B500040F0010007E040F0020004E040F0040023
:101B600001E040F00800641CDCE70023CFB22E2F18
:101B70000CD100BF14F8011FA1F130070A2F05D2C4
:101B800003EB830301EB4303303BF3E76C290DD0F8
:101B900068290BD0702954D00BDC252916D0582980
:101BA00031D063290CD0642913D114E014F8011B3F
:101BB000ECE7732934D075291BD0782909D122E0AC
:101BC000D8F80000011DC8F80010017802A800F044
:101BD00075F9641C9FE7D8F800100F1DC8F8007055
:101BE0000968CDE900200A2202A800F097F8F0E782
:101BF00033E0D8F800100F1DC8F800700968CDE96F
:101C000000200A2208E0D8F800100F1DC8F8007064
:101C10000968CDE90020102202A800F0E1F8D8E719
:101C2000D8F80000011DC8F80010076817F8011B5C
:101C30000029CED002A800F041F905980028F5DA75
:101C4000C7E7D8F80000011DC8F800100168082097
:101C5000CDE9000503461022DEE7059800287FF74E
:101C60005DAF049820B1024607A93046FFF7E6FEB3
:101C7000DDE904010844059050E77047FFF770B9AB
:101C800030B58FB028216846FEF775FA14210AA8EE
:101C9000FEF771FA01210804CDE900100024029436
:101CA00002250491CDE907504FF4E01009906846F1
:101CB000FFF7DCFA0F20CDE90A056802CDE90C40F8
:101CC00002210AA80E94FFF7D5F90FB030BD00002D
:101CD0000D48016841F00101016041680B4A114063
:101CE000416001680A4A11400160016821F48021C5
:101CF0000160416821F4FE0141604FF41F018160E1
:101D00000449C00308607047001002400000FFF85B
:101D1000FFFFF6FE08ED00E0FEE700002DE9FC5FA6
:101D20000E008146DDE90C47C6F100009846934657
:101D3000824600D40846012503E000BFB0FBFBF05B
:101D40006D1C5845FAD2A84500D9454624B1002E4D
:101D500001DB780700D5641EB80702D5B8F1000F83
:101D600010D0F8070ED16CB12046641EA84209D9E4
:101D70002021484600F0A2F8D9F80C000028F2DA39
:101D8000BDE8FC9F002E02DA56462D2102E07807BE
:101D900007D52B21484600F091F8D9F80C0000280F
:101DA000EEDB07F00300022810D1B8F1000F0DD1CF
:101DB00064B12046641EA84208D93021484600F08C
:101DC0007DF8D9F80C000028F2DAD9E7CDE9004710
:101DD00043465A463146484600F002F8D0E7000034
:101DE0002DE9F84F8246DDE90A4B012698469146D7
:101DF0000D460846374602E0B0FBF9F07F1C484527
:101E0000FAD2B84500D947465FEACB701CD1DCB1A5
:101E10005FEA8B7002D5B8F1000F02D0202000904D
:101E20000AE03020FBE75046009900F047F8DAF866
:101E30000C0000283EDB3CB12046641EB842F2D8BC
:101E400002E000BF06FB09F6B5FBF6F1494501D3F8
:101E5000012100E000214246A8F10108012A01DD2C
:101E6000012000E000200143ECD1DFF84C8000BFEE
:101E7000B5FBF6F000FB165518F80010504600F0C0
:101E80001DF8DAF80C00002803DBB6FBF9F6002E8B
:101E9000EED15FEACB700DD0002C0BD02046641E33
:101EA000B84207D92021504600F008F8DAF80C00B3
:101EB0000028F1DABDE8F88F742D000810B504464B
:101EC000D4E90130421C934205DB23681954A26017
:101ED000E068401CE060D4E90102824209D1216837
:101EE0002069FFF7ABFDA168884203D04FF0FF30B7
:101EF000E06010BD0020A06010BD00000FB4084BD2
:101F000010B504A902AA039800F0DEF8044602A95D
:101F1000002000F070FC204610BC5DF814FB0000AF
:101F2000F727000802E008C8121F08C1002AFAD1EA
:101F300070477047002001E001C1121F002AFBD149
:101F4000704700002DE9FF5F82B00021DDE9043019
:101F5000020DDDF840B0034318D044F61050A2F251
:101F6000FF3242431514119801281FD0A5EB0B0036
:101F7000401C5FEA000A4FF000064E4FDFF8389130
:101F8000B046504615D5CAF1000413E0119801245B
:101F90004AA3012801D16FEA0B010298119AC0E906
:101FA0000031C0E9024206B0BDE8F09FCBF100006D
:101FB000DFE704460021404A491842EB0450CDE9CE
:101FC000001012E0E00707D032463B464046494643
:101FD000FEF7BAFA8046894632463B461046194615
:101FE000FEF7B2FA06460F466410002CEAD1DDE98E
:101FF0000401DDE90023BAF1000F06DAFEF7A4FAC6
:1020000042464B46FEF7A0FA05E0FEF70FFB4246BC
:102010004B46FEF70BFB04460E460022284BFEF70C
:102020008DFB03D84FF0FF30014607E00022254B1F
:1020300020463146FEF7E1F9FEF767FB102409E080
:10204000002C0ADB0A220023FEF76FF9039B3032D3
:102050001A55641E50EA0102F2D1641C039AC4F1BD
:1020600011031444119A012A03D0012208430DD10F
:102070000AE0084304D000204FF0110B119072E7E2
:10208000A3EB0B056D1E0DE05B4504DD4FF0000278
:1020900005F1010504E003DA4FF00002A5F10105A6
:1020A000002AECD002981199C0E90231C0E900453C
:1020B00079E70000000014400000F03F300000000D
:1020C0000000F0430000E03F2DE9FF4F95B09B4634
:1020D0008946064600250FE2252877D100242746A9
:1020E000F84A0121059400E0044316F8013F203B23
:1020F00001FA03F01042F7D130782A2811D06FF09E
:102100002F033078A0F13002092A16D8059A44F03E
:10211000020402EB820203EB42021044761C05909B
:10212000EFE759F8042B0592002A03DA504244F4F1
:102130000054059044F00204761C30782E2816D105
:1021400016F8010F44F004042A280DD06FF02F0276
:102150003078A0F13003092B09D807EB870302EB95
:102160004303C718761CF3E759F8047B761C3078D4
:102170006C280FD006DC4C2817D068280DD06A28B0
:1021800014D104E0742810D07A280FD10DE044F463
:1021900000140AE044F4801401E044F4401472781E
:1021A000824202D104F58014761C761C30786628B1
:1021B0000BD013DC582877D009DC002875D04528CF
:1021C000F6D04628F4D047281AD19DE118E06328BC
:1021D00035D0642879D0652812D195E1702873D064
:1021E00008DC6728F1D069286FD06E280DD06F28E1
:1021F00006D1B5E073282CD0752875D0782874D016
:102200005A46179990476D1C75E1C4F30250022895
:1022100009D003280DD0D9F8001004280DD00D6086
:1022200009F1040967E1D9F80010EA17C1E9005281
:10223000F6E7D9F800100D80F2E70D70F0E719F815
:10224000041B8DF8001000208DF80100EA460120E3
:1022500003E059F804AB4FF0FF3061074FF0000185
:1022600002D40DE008F101018846B9420FDA804539
:10227000F8DB1AF808100029F4D108E008F1010190
:1022800088468142FADB1AF808100029F6D1059831
:102290005B46A0EB080721463846179A00F094FAEF
:1022A000284400EB080507E04DE029E10DE01AF8AD
:1022B000010B5A4617999047B8F10108F7D25B46CF
:1022C00021463846179A13E142E00A220092C4F3ED
:1022D00002524FF0000A022A08D059F804CB032A10
:1022E0004FEAEC710AD00DE029E02AE009F107017C
:1022F00021F00702F2E802C1914609E00FFA8CFCD6
:102300004FEAEC71042A03D14FFA8CFC4FEAEC71CE
:10231000002907DA0A460021DCF1000C61EB02011A
:102320002D2202E0220504D52B228DF80420012263
:1023300003E0E20701D02022F7E7904659E00A21A6
:1023400002E010220DE010214FF0000A00910BE096
:1023500010224FF0000A44F004040827009203E022
:1023600008224FF0000A0092C4F30252022A05D05C
:1023700059F804CB0021032A08D009E009F107012C
:1023800021F00702F2E802C1914605E01FFA8CFC39
:10239000042A01D10CF0FF0C4FF00008220728D5C9
:1023A000702806D0009B83F0100353EA0A0305D07F
:1023B0000EE040228DF80420012208E05CEA0102D0
:1023C00006D030228DF804208DF8050002229046B8
:1023D000009B83F0080353EA0A030AD15CEA010276
:1023E00001D1620705D530228DF804204FF0010895
:1023F0007F1E582804D034A003900EA802900DE050
:1024000036A0F9E753466046009AFDF78EFF8446F2
:102410000398825C0298401E029002705CEA010000
:10242000F0D1029806A9081A00F1200A600702D527
:1024300024F4803400E00127574502DDA7EB0A00B1
:1024400000E0002000EB0A01009005984144401A8A
:102450000590E00306D45B462146179A059800F0E4
:10246000B3F90544002706E001A85A46C05D179954
:1024700090476D1C7F1C4745F6DBE0030CD55B469F
:102480002146179A059800F09FF9054404E0302092
:102490005A46179990476D1C0099481E00900029D4
:1024A000F5DC08E0029802995A460078491C02912E
:1024B000179990476D1CBAF10001AAF1010AF1DCED
:1024C00065E10000092801003031323334353637F8
:1024D0003839616263646566000000003031323370
:1024E0003435363738394142434445460000000010
:1024F00000F058F90544761C307800287FF4ECADE4
:1025000019B02846BDE8F08F620700D4062709F10C
:10251000070222F0070CFCE80223E14603F0004822
:102520005FEA080C02D00FF2702C0DE05FEA045C49
:1025300002D50FF2682C07E05FEAC47C02D00FF2EC
:10254000602C01E0AFF2700C4FF0FF3823F0004335
:10255000CDF850C065280CD006DC452809D04628A7
:102560001DD047283DD13DE0662818D067287ED190
:1025700038E00021112F01DB112000E0781CCDE9AB
:10258000000106A90EA8FFF7DDFCDDE90F010E9A98
:1025900003910021009207F1010A04914DE04FF0F0
:1025A00000400097CDE9011006A90EA8FFF7CAFC6C
:1025B000DDE90F0203920E9B11990022DDF80CA0B9
:1025C0000093049211B9791C00EB010AB7EB0A00E1
:1025D00004D4C0F1FF3007F1010A0490AAEB070010
:1025E000019044E0012F00DA01270021112F01DDC5
:1025F000112000E03846CDE9000106A90EA8FFF73A
:10260000A1FCDDE90F010E9A0391002104910092D3
:10261000BA4621070CD40399514500DA8A46BAF12B
:10262000010F05DD009AAAF10101515C302908D0A3
:10263000B84202DA10F1040F06DA0121CDE90110E7
:1026400015E0AAF10101E9E7002805DC049901443D
:102650000491AAEB000102E0411C514500DD8A46CD
:102660000499401A401C01904FF00040029020074E
:1026700004D40198504501DBCDF8048000208DF88A
:102680004F0002980DF14F07B0F1004F25D02B20DD
:102690000E9002984FF0020800280CDA4042029097
:1026A0002D200E9007E00A210298FDF728FE303118
:1026B000029007F8011DB8F10001A8F10108F2DC51
:1026C00002980028EFD1791E0E980870307800F03B
:1026D000200040F0450007F8020D12A8C01B00F1D1
:1026E00007081498007800B1012000EB0A01019856
:1026F00001EBE07105984144401A401E0590E0034B
:1027000006D45B462146179A059800F05DF805440B
:102710001498007818B15A46179990476D1CE00339
:1027200024D55B462146179A059800F04DF80544DC
:102730001CE00498002807DBDDE90301884203DD83
:102740000098405C179901E0179930205A4690474D
:10275000049805F10105401C04900198401E019069
:1027600004D12E205A46179990476D1CBAF10001EA
:10277000AAF1010ADDDC05E017F8010B5A461799AA
:1027800090476D1CB8F10001A8F10108F4DC5B462C
:102790002146179A0598ABE62D0000002B0000009B
:1027A000200000002DE9F041044600251E46174692
:1027B000880404D405E039462020B0476D1C641E0F
:1027C000F9D52846BDE8F0812DE9F0410446002501
:1027D0001E469046C80301D5302700E02027880414
:1027E00004D505E041463846B0476D1C641EF9D556
:1027F0002846BDE8F0810A68531C0B6010707047D2
:1028000088B06D4804906D4805906D4806906D49FC
:1028100004A800F03CF96B4C20786B2800D0FEE750
:10282000012104A800F0D7F9664904A8491C00F06A
:10283000C5F960780028F7D1002104A800F089F9D3
:10284000012104A800F00CF9012104A800F0F3F91B
:10285000012104A800F042F9002104A800F026FAA2
:102860000C2104A800F05EF9042104A800F035FA58
:10287000012104A800F0F6F9002607A904A800F039
:1028800008FA9DF81C0088B34E49A660A68108315D
:1028900004A800F0DBF84B4F0837B7F9000000F050
:1028A00005F9494D2860B7F9020000F0FFF86860AB
:1028B000B7F9040000F0FAF8A860FDF70DFD8146B5
:1028C0008A466868FDF708FD074688462868FDF7D0
:1028D00003FD8DE8800702460B463CA105F1180078
:1028E000FFF70CFB05F11800FDF750FC07A904A841
:1028F00000F00BF99DF81C00002839D03149C4F8CC
:102900000E6066820E3104A800F0A5F82D4F0E3738
:10291000B7F9000000F0C0F82B4D0C352860B7F96E
:10292000020000F0B9F86860B7F9040000F0B4F8EC
:10293000A860FDF7D1FC81468A466868FDF7CCFCAB
:10294000074688462868FDF7C7FC8DE880070246E1
:102950000B4628A105F10C00FFF7D0FA05F10C0297
:102960002EA10020FFF7B4F805F10C00FDF70EFCD6
:1029700007A904A800F046F99DF81C0000283FF4C0
:102980007CAF10496680891C04A800F048F90D4806
:10299000801CB0F9000000F093F86060FDF79CFC2B
:1029A000024609480B4622A11830FFF7A7FA06484D
:1029B0001830FDF7EBFB60E7512D00082D2D0008C6
:1029C0009C00002078000020000500204163636522
:1029D0006C65726174696F6E205B6D675D3A25345A
:1029E0002E32660925342E32660925342E32660DC4
:1029F0000A000000416E67756C6172207261746537
:102A0000205B6D6470735D3A25342E32660925347F
:102A10002E32660925342E32660D0A000D0A204139
:102A20006E67756C6172206973202573200D0A0032
:102A300054656D7065726174757265205B6465675D
:102A4000435D3A25362E32660D0A000006230A46FB
:102A5000282100F0ACB806230A46222100F0A7B8CE
:102A600038B50C46054601236A46122100F09FF84E
:102A700000280BD19DF80000012364F386108DF827
:102A800000006A461221284600F0CEF838BD012326
:102A90000A460F2100F08BB810B5FDF714FCBDE815
:102AA00010400149FDF7D1BB00008C4210B5FDF785
:102AB0000AFCBDE810400149FDF7C7BB23DB793DA7
:102AC00010B5FDF700FC6FF00701FDF7F0FBBDE866
:102AD00010400149FDF761BB0000C84138B50C4604
:102AE000054601236A46112100F061F800280BD148
:102AF0009DF80000012364F307108DF800006A467A
:102B00001121284600F090F838BD38B50C46012355
:102B10006A461E2100F04BF89DF80010C1F34001F9
:102B2000217038BD38B50C46054601236A4611218F
:102B300000F03DF800280BD19DF80000012364F35C
:102B400003008DF800006A461121284600F06CF859
:102B500038BD7CB50C46054601236A46182100F0B5
:102B600026F8002822D19DF80000E10961F3410018
:102B70008DF8000001236A461821284600F054F819
:102B8000002813D1012301AA6221284600F00FF882
:102B900000280BD19DF80400012364F3C4008DF8D4
:102BA000040001AA6221284600F03EF87CBD30B442
:102BB000D0E901542046AC4630BC604738B50C46DD
:102BC00001236A461221FFF7F2FF9DF8001001F081
:102BD0000101217038BD38B50C46054601236A460F
:102BE0001221FFF7E4FF00280BD19DF8000001231C
:102BF00064F300008DF800006A461221284600F0B8
:102C000013F838BD38B50C4601236A461E21FFF77C
:102C1000CEFF9DF80010C1F38001217038BD022362
:102C20000A462021FFF7C3BF30B4846805682046F8
:102C3000AC4630BC604738B50C46054601236A46B1
:102C40001021FFF7B4FF00280BD19DF800000123ED
:102C500064F307108DF800006A4610212846FFF73C
:102C6000E3FF38BD38B50C46054601236A461021FE
:102C7000FFF79DFF00280BD19DF80000012364F3AE
:102C800041008DF800006A4610212846FFF7CCFF6E
:102C900038BD38B50C4601236A461E21FFF787FF71
:102CA0009DF8001001F00101217038BD38B50C46C7
:102CB000054601236A461021FFF779FF00280BD152
:102CC0009DF80000012364F383008DF800006A463C
:102CD00010212846FFF7A8FF38BD38B50C46054639
:102CE00001236A461721FFF762FF002811D19DF8E2
:102CF0000000210961F38200610961F3041064F3AB
:102D000047108DF8000001236A4617212846FFF777
:102D10008BFF38BDFEF72CF9FEF7B2FFFEF70EFE73
:102D2000FEF758FEFFF76CFDFCE700003EB5074CD0
:102D3000A04208D14FF47A748DE81C000A460123A2
:102D4000D521FDF731FF00203EBD00009C00002092
:102D50003EB5074CA04208D14FF47A748DE81C00B0
:102D60000A460123D521FEF72FF800203EBD0000C2
:102D70009C00002030313233343536373839414207
:102D80004344454600000000000000000102030427
:102D90000607080900000000010203045465726D73
:102DA000696E616C00000000C82D00080000002062
:102DB0009C000000241F0008642E00089C000020D6
:102DC000640C0000341F0008534547474552205209
:102DD0005454000000000000020000000200000047
:102DE0009C2D0008F00000200004000000000000FE
:102DF00000000000000000000000000000000000D3
:102E000000000000000000000000000000000000C2
:102E10009C2D0008F00400201000000000000000BD
:102E200000000000000000000000000000000000A2
:102E30000000000000000000000000000000000092
:102E40000000000000000000000000000000000082
:102E50000000000001000000100000000000000061
:042E600000A24A047E
:04000005080000ED02
:00000001FF
