:020000040800F2
:100000000004002047010008C1010008C3010008E6
:10001000C7010008CB010008CF0100080000000064
:10002000000000000000000000000000D3010008F4
:10003000D501000800000000D7010008D901000820
:1000400067010008670100086701000867010008F0
:1000500067010008670100086701000867010008E0
:1000600067010008670100086701000867010008D0
:1000700067010008670100086701000867010008C0
:1000800067010008670100086701000867010008B0
:1000900067010008670100086701000867010008A0
:1000A0006701000867010008670100086701000890
:1000B0006701000867010008670100086701000880
:1000C0006701000867010008670100086701000870
:1000D0006701000867010008670100086701000860
:1000E0006701000867010008670100086701000850
:1000F0006701000867010008670100086701000840
:10010000670100086701000867010008670100082F
:10011000670100086701000867010008670100081F
:10012000670100086701000867010008670100080F
:10013000DFF80CD000F0AEFC004800477501000865
:1001400018020020704708488047084981F3088852
:1001500007480047FEE7FEE7FEE7FEE7FEE7FEE7AB
:10016000FEE7FEE7FEE7FEE7450100081802002073
:100170003101000800F063FC00F078F800F030F87E
:100180001BE04FF400410D4800F0A1F94FF480410D
:100190000A4800F09CF94CF2503000F04CF84FF453
:1001A0000041064800F091F94FF48041034800F007
:1001B0008CF94CF2503000F03EF8E2E7000C0140C0
:1001C000704700BFFEE700BFFEE700BFFEE700BFCD
:1001D000FEE770477047704710B500F034F810BD67
:1001E0001D4909681D4AB1FBF2F0B0F1807F01D3CF
:1001F00001211CE020F07F41491E4FF0E0225161B7
:1002000000BF5117002905DA0F210901144A0B23F9
:10021000D15404E00F210901124A5317D15400BFF1
:1002200000214FF0E022916107211161002109B105
:1002300000BFFEE770470C49086000BF0A49096823
:100240000029FBD170470848006820B106480068C3
:10025000401E054908607047D80A0008A0860100C2
:1002600018ED00E000E400E00000002008B50121E6
:10027000082000F012FB4FF44040ADF800001020C1
:100280008DF8030003208DF802006946044800F051
:1002900071F84FF44041024800F017F908BD000022
:1002A000000C014010B50446C549601A8C422FD09D
:1002B00009DCC448201810D0B0F5806F16D0B0F516
:1002C000006F4AD11BE0B0F5806F2AD0B0F5006F07
:1002D00030D0B0F5406F40D135E00121042000F06E
:1002E000F6FA0021042000F0F2FA37E0012108209C
:1002F00000F0EDFA0021082000F0E9FA2EE00121DB
:10030000102000F0E4FA0021102000F0E0FA25E0CF
:100310000121202000F0DBFA0021202000F0D7FA94
:100320001CE00121402000F0D2FA0021402000F022
:10033000CEFA13E00121802000F0C9FA00218020CC
:1003400000F0C5FA0AE00121080200F0C0FA00211D
:100350004FF4807000F0BBFA00E000BF00BF10BD9A
:1003600010B50121084600F0B2FA0021012000F08A
:10037000AEFA10BD2DE9F04102460025002600200E
:1003800000230024002791F803C00CF00F0591F81A
:1003900003C01CF0100F03D091F802C04CEA050511
:1003A000B1F800C01CF0FF0F31D0146800202BE022
:1003B0004FF0010C0CFA00F3B1F800C00CEA030690
:1003C0009E4220D183004FF00F0C0CFA03F7BC4380
:1003D00005FA03FC4CEA040491F803C0BCF1280FB1
:1003E00006D14FF0010C0CFA00FCC2F814C00AE070
:1003F00091F803C0BCF1480F05D14FF0010C0CFA85
:1004000000FCC2F810C0401C0828D1D31460B1F819
:1004100000C0BCF1FF0F34DD546800202EE000F175
:10042000080C4FF0010808FA0CF3B1F800C00CEA10
:1004300003069E4221D183004FF00F0C0CFA03F704
:10044000BC4305FA03FC4CEA040491F803C0BCF178
:10045000280F05D100F1080C08FA0CF8C2F8148036
:1004600091F803C0BCF1480F07D100F1080C4FF020
:10047000010808FA0CF8C2F81080401C0828CED3F6
:100480005460BDE8F0814FF6FF7101800221817058
:100490000421C17070470246002093680B4201D0CE
:1004A000012000E0002070470146886880B2704754
:1004B00002460020D3680B4201D0012000E000205A
:1004C00070470146C86880B270470161704741615A
:1004D00070470AB1016100E041617047C160704737
:1004E0004FF480320A43826181618261826982694C
:1004F000704702460020344B18684FF6807318404E
:1005000040EA02100843304B186070472F49C86119
:100510007047F0B50A4600230024002100252A4E2A
:100520007168C0F3034583B200F44016B6F5401F6E
:1005300008D121F07061244E766826F07066224F53
:100540007E6012E000F48016B6F5801F06D1032607
:1005500006FA05F4A14341F0706106E0460D36014C
:1005600003FA06F6B14341F0706122B1460D36013F
:1005700003FA06F63143144E7160F0BD30B5002227
:100580008B071C0F0F2303FA04F20F4B08338C1058
:1005900053F8243093430C4C08348D1044F8253024
:1005A00023468C1053F824308C07240F00FA04F4EF
:1005B0002343054C08348D1044F8253030BD00002D
:1005C0000014014000F8FEBF00000140000020427E
:1005D000DA48006840F00100D849086008464068E1
:1005E000D7490840D549486008460068D5490840C1
:1005F000D24908600846006820F480200860084658
:10060000406820F4FE004860002088607047CB49B5
:10061000096821F48031C94A11601146096821F442
:1006200080211160B0F5803F03D0B0F5802F0ED14E
:1006300006E0C249096841F48031C04A116007E010
:10064000BE49096841F4A021BC4A116000E000BF26
:1006500000BF704710B501460022002300204A1158
:10066000012A02D1B54C236806E0022A02D1B34C1C
:10067000236A01E0B14C636A01F01F020124944037
:100680001C4201D0012000E0002010BD70B5002404
:100690000025002600BF3120FFF7DCFF0646641C62
:1006A00016B9B4F5A06FF6D13120FFF7D3FF08B12A
:1006B000012500E00025284670BD014600209F4A24
:1006C000106820F0F80040EAC100106070479E49B1
:1006D0000860704702460020984B586820F47C1050
:1006E00042EA01031843954B5860704796490866E3
:1006F000704701460020914A506820F003000843EB
:10070000506070478D48406800F00C00704701460B
:1007100000208A4A506820F0F0000843506070477B
:1007200001460020854A506820F4E060084350608C
:10073000704701460020814A506820F4605040EA2A
:10074000C1005060704729B17C4A527A02437B4B0A
:100750005A7206E0794A527AC343DBB21A40774BA9
:100760005A72704779490860704701460020734A01
:10077000506820F440400843506070470021744A9C
:1007800011706E4A82F82010012802D0042808D186
:1007900003E001216E4A117004E005216C4A1170DA
:1007A00000E000BF00BF70476A49086070476349B6
:1007B000096A0143614A11627047674908607047DE
:1007C00030B500210022002400235C4D6D6805F047
:1007D0000C0121B1042905D0082923D105E05F4D82
:1007E000056022E05D4D05601FE0544D6D6805F425
:1007F0007012022505EB9242504D6D6805F480346D
:100800001CB9574D554305600BE04C4D6D6815F410
:10081000003F03D0524D5543056002E04F4D554314
:10082000056002E04D4D056000BF00BF434D6D689F
:1008300005F0F00109094B4D6B5C0568DD40456032
:100840003E4D6D6805F4E061090A464D6B5C4568F4
:10085000DD408560394D6D6805F46051C90A414D30
:100860006B5C4568DD40C560344D6D6805F4404102
:10087000890B3D4D6B5CC568B5FBF3F5056130BD7B
:1008800029B12E4A526902432C4B5A6104E02B4A8B
:1008900052698243294B5A61704729B1274A9269AC
:1008A0000243264B9A6104E0244A92698243234B17
:1008B0009A61704729B1214AD26902431F4BDA611C
:1008C00004E01E4AD26982431C4BDA61704729B1A9
:1008D0001A4AD2680243194BDA6004E0174AD26818
:1008E0008243164BDA60704729B1144A12690243F9
:1008F000124B1A6104E0114A126982430F4B1A61CC
:1009000070471A49086070470F49C86470470B491F
:10091000C87170470948406A40F0807007494862D2
:10092000704701460020054A92680A4201D0012022
:1009300000E00020704701498872704700100240B3
:100940000000FFF8FFFFF6FE00004242D8004242DE
:1009500020100240800442423C04424200127A00CD
:1009600000093D0004000020140000204004424221
:1009700000210020434A126842F48032414B1A6041
:1009800000BF404A126802F40030491C10B9B1F5AA
:10099000A06FF6D13B4A126812F4003F01D001204B
:1009A00000E00020012843D1374A126842F01002CB
:1009B000354B1A601A46126822F003021A601A4672
:1009C000126842F002021A602E4A52682D4B5A6099
:1009D0001A4652685A601A46526842F480625A6057
:1009E0001A46526822F47C125A601A46526842F43F
:1009F000E8125A601A46126842F080721A6000BF0C
:100A0000204A126812F0007FFAD01E4A526822F083
:100A100003021C4B5A601A46526842F002025A60A6
:100A200000BF184A526802F00C02082AF9D101E00E
:100A300000BFFEE7704710B5FFF79AFF10BD10B575
:100A40001048006840F001000E4908600846406800
:100A50000E4908400B494860084600680C490840A8
:100A6000084908600846006820F4802008600846AD
:100A7000406820F4FE00486000208860FFF7DBFF3C
:100A800010BD000000100240002002400000FFF8EE
:100A9000FFFFF6FE064C074D06E0E06840F001035C
:100AA00094E8070098471034AC42F6D3FFF744FBB4
:100AB000EC0A00080C0B000802E008C8121F08C16D
:100AC000002AFAD170477047002001E001C1121FCF
:100AD000002AFBD17047000000A24A0400A24A0489
:100AE00000A24A040051250200A24A040C0B00088F
:100AF0000000002018000000B80A0008240B0008BD
:100B00001800002000020000C80A000800000000D1
:100B100000000000010203040102030406070809A3
:040B200002040608BD
:0400000508000147A7
:00000001FF
