:020000040800F2
:100000000004002047010008BD020008BF020008EC
:10001000C3020008C7020008CB020008000000006D
:10002000000000000000000000000000CF020008F7
:10003000D102000800000000D3020008D502000829
:1000400067010008670100086701000867010008F0
:1000500067010008670100086701000867010008E0
:1000600067010008670100086701000867010008D0
:1000700067010008670100086701000867010008C0
:1000800067010008670100086701000867010008B0
:1000900067010008670100086701000867010008A0
:1000A0006701000867010008670100086701000890
:1000B0006701000867010008670100086701000880
:1000C0006701000867010008670100086701000870
:1000D0006701000867010008670100086701000860
:1000E0006701000867010008670100086701000850
:1000F0006701000867010008670100086701000840
:10010000670100086701000867010008670100082F
:10011000670100086701000867010008670100081F
:10012000670100086701000867010008670100080F
:10013000DFF80CD000F0FCFD00480047C1010008CA
:1001400018020020704708488047084981F3088852
:1001500007480047FEE7FEE7FEE7FEE7FEE7FEE7AB
:10016000FEE7FEE7FEE7FEE7450100081802002073
:100170003101000810B508214D4800F0ECFA1021BB
:100180004B4800F0E8FA20214A4800F0E4FA402108
:10019000484800F0E0FA8021464800F0DCFA4FF4CD
:1001A0008071444800F0D7FA10BD70B504460125AF
:1001B00003E0414800F0C0F86D1CA542F9DD70BDB8
:1001C00000F08CFD00F0D4F800F077F900F086F82C
:1001D000002500240026002769E00421344800F0AF
:1001E0009EFA30B906B900240FB103250AE00225B2
:1001F00008E002212E4800F077F910B90125012608
:1002000000E00025012D04D0022D3AD0032D46D167
:1002100044E04FF40071274800F09DFA2046641C2A
:1002200006282ADA012C04D10821214800F091FA8D
:1002300026E0022C04D110211D4800F08AFA1FE0AC
:10024000032C04D120211B4800F083FA18E0042C71
:1002500004D14021174800F07CFA11E0052C04D1AC
:100260008021144800F075FA0AE0062C08D14FF4FA
:100270008071104800F06DFA02E00024FFF77AFF69
:1002800014E02046FFF791FF4FF40071094800F099
:1002900060FA01270024FFF76DFF07E006E0002762
:1002A0004FF40071034800F056FA00BF00BF94E716
:1002B00000080140000C014080EE3600704700BF8E
:1002C000FEE700BFFEE700BFFEE700BFFEE77047A6
:1002D0007047704710B500F039F810BD30B52048B0
:1002E00000684FF47A72B0FBF2F1B1F1807F01D374
:1002F00001201DE021F07F40401E4FF0E0225061C0
:1003000050170F22002807DA13071D0E154B00F0B7
:100310000F04241F1D5503E013071C0E124B1C5421
:1003200000BF00204FF0E022906107201061002004
:1003300008B100BFFEE730BD01B50C490098086068
:1003400000BF0A4800680028FBD108BD07480068C4
:1003500020B106480068401E04490860704700004C
:10036000740D000818ED00E000E400E0000000203B
:1003700008B50121082000F0DBFB4FF40070ADF858
:10038000000010208DF8030003208DF8020069465C
:10039000434800F031F94FF40071414800F0DBF9B7
:1003A0000121082000F0C4FB4FF48070ADF800007C
:1003B00010208DF8030003208DF8020069463848AC
:1003C00000F01AF94FF48071354800F0C4F90121AA
:1003D000082000F0ADFB8020ADF8000010208DF863
:1003E000030003208DF8020069462D4800F004F94F
:1003F00080212B4800F0AFF90121082000F098FB84
:100400004020ADF8000010208DF8030003208DF887
:1004100002006946224800F0EFF84021204800F031
:100420009AF90121082000F083FB2020ADF800009C
:1004300010208DF8030003208DF80200694618484B
:1004400000F0DAF82021164800F085F90121042097
:1004500000F06EFB1020ADF800008DF803000320C3
:100460008DF8020069460F4800F0C6F810210D48CB
:1004700000F071F90121042000F05AFB0820ADF8CA
:10048000000010208DF8030003208DF8020069465B
:10049000044800F0B1F80821024800F05CF908BDFA
:1004A000000C01400008014001B502E00098401E28
:1004B000009000980028F9D108BD08B5012104205A
:1004C00000F036FB0121082000F032FB0620ADF8D9
:1004D000000001208DF8020048208DF803006946D5
:1004E000104800F089F808BD70B504460D4629464D
:1004F000204600F014F998B94CF25030FFF7D4FFC1
:100500002946204600F00BF940B900BF2946204695
:1005100000F005F90028F9D0002070BD0120FCE7AB
:100520000120FAE70008014010B50446C649601AE8
:100530008C422FD009DCC548204480B1B0F5806FD3
:1005400016D0B0F5006F4AD11BE0B0F5806F2AD00D
:10055000B0F5006F30D0B0F5406F40D135E00121EB
:10056000042000F0FFFA0021042000F0FBFA37E03D
:100570000121082000F0F6FA0021082000F0F2FA2C
:100580002EE00121102000F0EDFA0021102000F0F3
:10059000E9FA25E00121202000F0E4FA00212020E2
:1005A00000F0E0FA1CE00121402000F0DBFA00211D
:1005B000402000F0D7FA13E00121802000F0D2FAA9
:1005C0000021802000F0CEFA0AE00121080200F0AC
:1005D000C9FA00214FF4807000F0C4FA00E000BFB7
:1005E00000BF10BD10B50121084600F0BBFA002184
:1005F000012000F0B7FA10BD2DE9F04102460025B8
:100600000026002000230024002791F803C00CF0EE
:100610000F0591F803C00CF0100CBCF1000F03D0D3
:1006200091F802C04CEA050591F800C0BCF1000F3A
:1006300031D0146800202BE04FF0010C0CFA00F3CD
:10064000B1F800C00CEA03069E4220D183004FF0AF
:100650000F0C0CFA03F7BC4305FA03FC4CEA040444
:1006600091F803C0BCF1280F06D14FF0010C0CFA31
:1006700000FCC2F814C00AE091F803C0BCF1480FB6
:1006800005D14FF0010C0CFA00FCC2F810C0401C60
:100690000828D1D31460B1F800C0BCF1FF0F34DDDD
:1006A000546800202EE000F1080C4FF0010808FA11
:1006B0000CF3B1F800C00CEA03069E4221D183007E
:1006C0004FF00F0C0CFA03F7BC4305FA03FC4CEA9D
:1006D000040491F803C0BCF1280F05D100F1080C07
:1006E00008FA0CF8C2F8148091F803C0BCF1480F66
:1006F00007D100F1080C4FF0010808FA0CF8C2F815
:100700001080401C0828CED35460BDE8F0814FF61D
:10071000FF710180022181700421C170704702467F
:10072000002093680B400BB1012000E000207047CF
:100730000146886880B2704702460020D3680B40AB
:100740000BB1012000E0002070470146C86880B26C
:10075000704701617047416170470AB1016100E073
:1007600041617047C16070474FF480320A43826133
:100770008161826182698269704702460020344B40
:1007800018684FF68073184040EA02100843304B57
:10079000186070472F49C8617047F0B50A460023BA
:1007A0000024002100252A4E7168C0F3034583B25E
:1007B00000F44016B6F5401F08D121F07061244EB8
:1007C000766826F07066224F7E6012E000F4801694
:1007D000B6F5801F06D1032606FA05F4A14341F0C1
:1007E000706106E0460D360103FA06F6B14341F0AA
:1007F000706122B1460D360103FA06F63143144EFC
:100800007160F0BD30B500228B071C0F0F2303FA77
:1008100004F20F4B08338C1053F8243093430C4CE4
:1008200008348D1044F8253023468C1053F82430BA
:100830008C07240F00FA04F42343054C08348D1070
:1008400044F8253030BD00000014014000F8FEBF20
:100850000000014000002042DE48006840F0010036
:10086000DC49086008464068DB490840D9494860CF
:1008700008460068D9490840D6490860084600681B
:1008800020F4802008600846406820F4FE0048609C
:10089000002088607047CF49096821F48031CD4A33
:1008A00011601146096821F480211160B0F5803F84
:1008B00003D0B0F5802F0ED106E0C649096841F497
:1008C0008031C44A116007E0C249096841F4A0219F
:1008D000C04A116000E000BF00BF704710B501467C
:1008E0000022002300204A11012A02D1B94C2368BA
:1008F00006E0022A02D1B74C236A01E0B54C636AD4
:1009000001F01F02012494401C400CB1012000E0C2
:10091000002010BD38B5002000900024002500BF45
:100920003120FFF7DBFF05460098401C00901DB901
:100930000098B0F5A06FF3D13120FFF7CFFF08B1D9
:10094000012400E00024204638BD01460020A14AD1
:10095000106820F0F80040EAC10010607047A0491C
:1009600008607047024600209A4B586820F47C10BB
:1009700042EA01031843974B58607047984908664C
:10098000704701460020934A506820F00300084356
:10099000506070478F48406800F00C007047014677
:1009A00000208C4A506820F0F000084350607047E7
:1009B00001460020874A506820F4E06008435060F8
:1009C000704701460020834A506820F4605040EA96
:1009D000C1005060704729B17E4A527A02437D4B74
:1009E0005A7204E07B4A527A82437A4B5A727047B9
:1009F0007B49D8310860704701460020754A50682D
:100A000020F440400843506070470021714A203272
:100A10001170704A82F82010012802D004280AD1EF
:100A200004E001216B4A2032117005E00521694A7A
:100A30002032117000E000BF00BF704769490860B4
:100A400070476449096A0143624A11627047654907
:100A500044390860704730B500210022002400238B
:100A60005C4D6D6805F00C0121B1042905D0082901
:100A700023D105E05C4D056022E05B4D05601FE081
:100A8000544D6D6805F47012022505EB9242514DEC
:100A90006D6805F480341CB9544D554305600BE076
:100AA0004C4D6D6805F400351DB1504D5543056042
:100AB00002E04D4D5543056002E04B4D056000BF1F
:100AC00000BF444D6D6805F0F0010909484D6B5CAD
:100AD0000568DD4045603F4D6D6805F4E061090A39
:100AE000434D6B5C4568DD4085603A4D6D6805F4AB
:100AF0006051C90A3E4D6B5C4568DD40C560354DAF
:100B00006D6805F44041890B3A4D6B5CC568B5FBD7
:100B1000F3F5056130BD29B12E4A526902432D4BD0
:100B20005A6104E02B4A526982432A4B5A6170474A
:100B300029B1284A92690243264B9A6104E0254A6A
:100B400092698243234B9A61704729B1214AD26945
:100B50000243204BDA6104E01E4AD26982431D4BF6
:100B6000DA61704729B11B4AD2680243194BDA6037
:100B700004E0184AD2688243164BDA60704729B104
:100B8000144A12690243134B1A6104E0114A1269B4
:100B90008243104B1A617047124940390860704710
:100BA0000F49C86470470B49C87170470948406ACB
:100BB00040F0807007494862704701460020054AAE
:100BC00092680A400AB1012000E000207047014904
:100BD00088727047001002400000FFF8FFFFF6FE29
:100BE000000042428004424200127A0000093D00A7
:100BF00004000020140000200CB50020019000909B
:100C00004748006840F480304549086000BF4448C8
:100C1000006800F4003000900198401C019000989A
:100C200018B90198B0F5A06FF1D13D48006800F403
:100C3000003010B10120009001E0002000900098E9
:100C4000012844D13748006840F010003549086059
:100C50000846006820F0030008600846006840F07D
:100C6000020008602E4840682D49486008464068E8
:100C700048600846406840F4806048600846406824
:100C800020F47C1048600846406840F4E810486052
:100C90000846006840F08070086000BF2048006887
:100CA00000F000700028F9D01D48406820F00300D3
:100CB0001B4948600846406840F00200486000BF99
:100CC0001748406800F00C000828F9D101E000BF87
:100CD000FEE70CBD10B5FFF78FFF10BD10B5104833
:100CE000006840F001000E490860084640680E495F
:100CF00008400B494860084600680C49084008490C
:100D000008600846006820F48020086008464068B3
:100D100020F4FE00486000208860FFF7DBFF10BD74
:100D200000100240002002400000FFF8FFFFF6FE26
:100D3000064C074D06E0E06840F0010394E8070028
:100D400098471034AC42F6D3FFF7F6F9880D000847
:100D5000A80D000802E008C8121F08C1002AFAD135
:100D600070477047002001E001C1121F002AFBD12B
:100D70007047000000A24A0400A24A0400A24A04EC
:100D80000051250200A24A04A80D0008000000201E
:100D900018000000540D0008C00D000818000020C5
:100DA00000020000640D00080000000000000000C8
:100DB00001020304010203040607080902040608ED
:0400000508000147A7
:00000001FF
